{
  "_format": "hh-sol-artifact-1",
  "contractName": "Staking",
  "sourceName": "contracts/Staking.sol",
  "abi": [
    {
      "inputs": [
        {
          "internalType": "contract IToken",
          "name": "_RewardToken",
          "type": "address"
        },
        {
          "internalType": "contract IERC721",
          "name": "_nft",
          "type": "address"
        }
      ],
      "stateMutability": "nonpayable",
      "type": "constructor"
    },
    {
      "anonymous": false,
      "inputs": [
        {
          "indexed": true,
          "internalType": "address",
          "name": "user",
          "type": "address"
        },
        {
          "indexed": false,
          "internalType": "uint256",
          "name": "reward",
          "type": "uint256"
        }
      ],
      "name": "RewardPaid",
      "type": "event"
    },
    {
      "anonymous": false,
      "inputs": [
        {
          "indexed": false,
          "internalType": "address",
          "name": "_user",
          "type": "address"
        },
        {
          "indexed": false,
          "internalType": "uint256",
          "name": "amount",
          "type": "uint256"
        }
      ],
      "name": "Staked",
      "type": "event"
    },
    {
      "anonymous": false,
      "inputs": [
        {
          "indexed": false,
          "internalType": "address",
          "name": "owner",
          "type": "address"
        },
        {
          "indexed": false,
          "internalType": "uint256",
          "name": "amount",
          "type": "uint256"
        }
      ],
      "name": "UnStaked",
      "type": "event"
    },
    {
      "inputs": [
        {
          "internalType": "address",
          "name": "_user",
          "type": "address"
        }
      ],
      "name": "claimReward",
      "outputs": [],
      "stateMutability": "nonpayable",
      "type": "function"
    },
    {
      "inputs": [],
      "name": "initialize",
      "outputs": [],
      "stateMutability": "nonpayable",
      "type": "function"
    },
    {
      "inputs": [],
      "name": "initialized",
      "outputs": [
        {
          "internalType": "bool",
          "name": "",
          "type": "bool"
        }
      ],
      "stateMutability": "view",
      "type": "function"
    },
    {
      "inputs": [
        {
          "internalType": "bool",
          "name": "_enabled",
          "type": "bool"
        }
      ],
      "name": "setTokenClaimable",
      "outputs": [],
      "stateMutability": "nonpayable",
      "type": "function"
    },
    {
      "inputs": [
        {
          "internalType": "uint256",
          "name": "tokenId",
          "type": "uint256"
        }
      ],
      "name": "stake",
      "outputs": [],
      "stateMutability": "nonpayable",
      "type": "function"
    },
    {
      "inputs": [
        {
          "internalType": "uint256[]",
          "name": "tokenId",
          "type": "uint256[]"
        }
      ],
      "name": "stakeBatch",
      "outputs": [],
      "stateMutability": "nonpayable",
      "type": "function"
    },
    {
      "inputs": [
        {
          "internalType": "uint256",
          "name": "tokenId",
          "type": "uint256"
        }
      ],
      "name": "unstake",
      "outputs": [],
      "stateMutability": "nonpayable",
      "type": "function"
    },
    {
      "inputs": [
        {
          "internalType": "address",
          "name": "_user",
          "type": "address"
        }
      ],
      "name": "updateReward",
      "outputs": [],
      "stateMutability": "nonpayable",
      "type": "function"
    },
    {
      "inputs": [
        {
          "internalType": "address",
          "name": "_user",
          "type": "address"
        }
      ],
      "name": "viewTokensListed",
      "outputs": [
        {
          "internalType": "uint256[]",
          "name": "tokenIDs",
          "type": "uint256[]"
        }
      ],
      "stateMutability": "view",
      "type": "function"
    }
  ],
  "bytecode": "0x60806040526032600555678ac7230489e800006007553480156200002257600080fd5b5060405162001ad538038062001ad583398181016040528101906200004891906200019c565b60008054906101000a900473ffffffffffffffffffffffffffffffffffffffff169150600160009054906101000a900473ffffffffffffffffffffffffffffffffffffffff16905033600260006101000a81548173ffffffffffffffffffffffffffffffffffffffff021916908373ffffffffffffffffffffffffffffffffffffffff1602179055505050620001e3565b600080fd5b600073ffffffffffffffffffffffffffffffffffffffff82169050919050565b60006200010b82620000de565b9050919050565b60006200011f82620000fe565b9050919050565b620001318162000112565b81146200013d57600080fd5b50565b600081519050620001518162000126565b92915050565b60006200016482620000fe565b9050919050565b620001768162000157565b81146200018257600080fd5b50565b60008151905062000196816200016b565b92915050565b60008060408385031215620001b657620001b5620000d9565b5b6000620001c68582860162000140565b9250506020620001d98582860162000185565b9150509250929050565b6118e280620001f36000396000f3fe608060405234801561001057600080fd5b50600436106100935760003560e01c80638129fc1c116100665780638129fc1c1461010a578063a694fc3a14610114578063d279c19114610130578063d696bc0e1461014c578063f2abfbe41461017c57610093565b8063158ef93e14610098578063230f436d146100b65780632e17de78146100d2578063632447c9146100ee575b600080fd5b6100a0610198565b6040516100ad9190610f27565b60405180910390f35b6100d060048036038101906100cb91906110e5565b6101ab565b005b6100ec60048036038101906100e7919061112e565b6101f2565b005b610108600480360381019061010391906111b9565b610208565b005b6101126103fc565b005b61012e6004803603810190610129919061112e565b610506565b005b61014a600480360381019061014591906111b9565b610513565b005b610166600480360381019061016191906111b9565b6106ad565b60405161017391906112a4565b60405180910390f35b610196600480360381019061019191906112f2565b610747565b005b600460009054906101000a900460ff1681565b60005b81518110156101ee576101db338383815181106101ce576101cd61131f565b5b60200260200101516107f4565b80806101e69061137d565b9150506101ae565b5050565b6101fb33610513565b6102053382610b9c565b50565b6000600860008373ffffffffffffffffffffffffffffffffffffffff1673ffffffffffffffffffffffffffffffffffffffff168152602001908152602001600020905060008160000180548060200260200160405190810160405280929190818152602001828054801561029b57602002820191906000526020600020905b815481526020019060010190808311610287575b5050505050905060005b81518110156103f65760008360010160008484815181106102c9576102c861131f565b5b602002602001015181526020019081526020016000205411156103d65760006005548460010160008585815181106103045761030361131f565b5b60200260200101518152602001908152602001600020544261032691906113c5565b6103309190611428565b905060006005548560010160008686815181106103505761034f61131f565b5b60200260200101518152602001908152602001600020544261037291906113c5565b61037c9190611459565b90506007548261038c919061148a565b856002018190555080426103a091906114cc565b8560010160008686815181106103b9576103b861131f565b5b602002602001015181526020019081526020016000208190555050505b6103e38360020154610e4a565b80806103ee9061137d565b9150506102a5565b50505050565b600260009054906101000a900473ffffffffffffffffffffffffffffffffffffffff1673ffffffffffffffffffffffffffffffffffffffff163373ffffffffffffffffffffffffffffffffffffffff161461048c576040517f08c379a000000000000000000000000000000000000000000000000000000000815260040161048390611583565b60405180910390fd5b60001515600460009054906101000a900460ff161515146104e2576040517f08c379a00000000000000000000000000000000000000000000000000000000081526004016104d9906115ef565b60405180910390fd5b6001600460006101000a81548160ff02191690831515021790555042600681905550565b61051033826107f4565b50565b6000600860008373ffffffffffffffffffffffffffffffffffffffff1673ffffffffffffffffffffffffffffffffffffffff1681526020019081526020016000209050600081600201541161059d576040517f08c379a00000000000000000000000000000000000000000000000000000000081526004016105949061165b565b60405180910390fd5b60008054906101000a900473ffffffffffffffffffffffffffffffffffffffff1673ffffffffffffffffffffffffffffffffffffffff166340c10f198383600201546040518363ffffffff1660e01b81526004016105fc929190611699565b600060405180830381600087803b15801561061657600080fd5b505af115801561062a573d6000803e3d6000fd5b505050508173ffffffffffffffffffffffffffffffffffffffff167fe2403640ba68fed3a2f88b7557551d1993f84b99bb10ff833f0cf8db0c5e0486826002015460405161067891906116c2565b60405180910390a2806002015481600301600082825461069891906114cc565b92505081905550600081600201819055505050565b6060600860008373ffffffffffffffffffffffffffffffffffffffff1673ffffffffffffffffffffffffffffffffffffffff16815260200190815260200160002060000180548060200260200160405190810160405280929190818152602001828054801561073b57602002820191906000526020600020905b815481526020019060010190808311610727575b50505050509050919050565b600260009054906101000a900473ffffffffffffffffffffffffffffffffffffffff1673ffffffffffffffffffffffffffffffffffffffff163373ffffffffffffffffffffffffffffffffffffffff16146107d7576040517f08c379a00000000000000000000000000000000000000000000000000000000081526004016107ce90611583565b60405180910390fd5b80600460016101000a81548160ff02191690831515021790555050565b8173ffffffffffffffffffffffffffffffffffffffff16600160009054906101000a900473ffffffffffffffffffffffffffffffffffffffff1673ffffffffffffffffffffffffffffffffffffffff16636352211e836040518263ffffffff1660e01b815260040161086691906116c2565b602060405180830381865afa158015610883573d6000803e3d6000fd5b505050506040513d601f19601f820116820180604052508101906108a791906116f2565b73ffffffffffffffffffffffffffffffffffffffff16146108fd576040517f08c379a00000000000000000000000000000000000000000000000000000000081526004016108f490611791565b60405180910390fd5b600460009054906101000a900460ff1661094c576040517f08c379a0000000000000000000000000000000000000000000000000000000008152600401610943906117fd565b60405180910390fd5b6000600860008473ffffffffffffffffffffffffffffffffffffffff1673ffffffffffffffffffffffffffffffffffffffff1681526020019081526020016000209050806000018290806001815401808255809150506001900390600052602060002001600090919091909150554281600101600084815260200190815260200160002081905550826009600084815260200190815260200160002060006101000a81548173ffffffffffffffffffffffffffffffffffffffff021916908373ffffffffffffffffffffffffffffffffffffffff160217905550600160009054906101000a900473ffffffffffffffffffffffffffffffffffffffff1673ffffffffffffffffffffffffffffffffffffffff1663095ea7b330846040518363ffffffff1660e01b8152600401610a83929190611699565b600060405180830381600087803b158015610a9d57600080fd5b505af1158015610ab1573d6000803e3d6000fd5b50505050600160009054906101000a900473ffffffffffffffffffffffffffffffffffffffff1673ffffffffffffffffffffffffffffffffffffffff166342842e0e8430856040518463ffffffff1660e01b8152600401610b149392919061181d565b600060405180830381600087803b158015610b2e57600080fd5b505af1158015610b42573d6000803e3d6000fd5b5050505060036000815480929190610b599061137d565b91905055507f9e71bc8eea02a63969f509818f2dafb9254532904319f9dbda79b67bd34a5f3d8383604051610b8f929190611699565b60405180910390a1505050565b600160009054906101000a900473ffffffffffffffffffffffffffffffffffffffff1673ffffffffffffffffffffffffffffffffffffffff16636352211e826040518263ffffffff1660e01b8152600401610bf791906116c2565b602060405180830381865afa158015610c14573d6000803e3d6000fd5b505050506040513d601f19601f82011682018060405250810190610c3891906116f2565b73ffffffffffffffffffffffffffffffffffffffff168273ffffffffffffffffffffffffffffffffffffffff1614610ca5576040517f08c379a0000000000000000000000000000000000000000000000000000000008152600401610c9c90611791565b60405180910390fd5b6000600860008473ffffffffffffffffffffffffffffffffffffffff1673ffffffffffffffffffffffffffffffffffffffff16815260200190815260200160002090506000816001016000848152602001908152602001600020819055506009600083815260200190815260200160002060006101000a81549073ffffffffffffffffffffffffffffffffffffffff0219169055600160009054906101000a900473ffffffffffffffffffffffffffffffffffffffff1673ffffffffffffffffffffffffffffffffffffffff166342842e0e8430856040518463ffffffff1660e01b8152600401610d989392919061181d565b600060405180830381600087803b158015610db257600080fd5b505af1158015610dc6573d6000803e3d6000fd5b5050505060036000815480929190610ddd90611854565b919050555080600001805480610df657610df561187d565b5b600190038181906000526020600020016000905590557f79d3df6837cc49ff0e09fd3258e6e45594e0703445bb06825e9d75156eaee8f08383604051610e3d929190611699565b60405180910390a1505050565b610ee081604051602401610e5e91906116c2565b6040516020818303038152906040527ff82c50f1000000000000000000000000000000000000000000000000000000007bffffffffffffffffffffffffffffffffffffffffffffffffffffffff19166020820180517bffffffffffffffffffffffffffffffffffffffffffffffffffffffff8381831617835250505050610ee3565b50565b60008151905060006a636f6e736f6c652e6c6f679050602083016000808483855afa5050505050565b60008115159050919050565b610f2181610f0c565b82525050565b6000602082019050610f3c6000830184610f18565b92915050565b6000604051905090565b600080fd5b600080fd5b600080fd5b6000601f19601f8301169050919050565b7f4e487b7100000000000000000000000000000000000000000000000000000000600052604160045260246000fd5b610fa482610f5b565b810181811067ffffffffffffffff82111715610fc357610fc2610f6c565b5b80604052505050565b6000610fd6610f42565b9050610fe28282610f9b565b919050565b600067ffffffffffffffff82111561100257611001610f6c565b5b602082029050602081019050919050565b600080fd5b6000819050919050565b61102b81611018565b811461103657600080fd5b50565b60008135905061104881611022565b92915050565b600061106161105c84610fe7565b610fcc565b9050808382526020820190506020840283018581111561108457611083611013565b5b835b818110156110ad57806110998882611039565b845260208401935050602081019050611086565b5050509392505050565b600082601f8301126110cc576110cb610f56565b5b81356110dc84826020860161104e565b91505092915050565b6000602082840312156110fb576110fa610f4c565b5b600082013567ffffffffffffffff81111561111957611118610f51565b5b611125848285016110b7565b91505092915050565b60006020828403121561114457611143610f4c565b5b600061115284828501611039565b91505092915050565b600073ffffffffffffffffffffffffffffffffffffffff82169050919050565b60006111868261115b565b9050919050565b6111968161117b565b81146111a157600080fd5b50565b6000813590506111b38161118d565b92915050565b6000602082840312156111cf576111ce610f4c565b5b60006111dd848285016111a4565b91505092915050565b600081519050919050565b600082825260208201905092915050565b6000819050602082019050919050565b61121b81611018565b82525050565b600061122d8383611212565b60208301905092915050565b6000602082019050919050565b6000611251826111e6565b61125b81856111f1565b935061126683611202565b8060005b8381101561129757815161127e8882611221565b975061128983611239565b92505060018101905061126a565b5085935050505092915050565b600060208201905081810360008301526112be8184611246565b905092915050565b6112cf81610f0c565b81146112da57600080fd5b50565b6000813590506112ec816112c6565b92915050565b60006020828403121561130857611307610f4c565b5b6000611316848285016112dd565b91505092915050565b7f4e487b7100000000000000000000000000000000000000000000000000000000600052603260045260246000fd5b7f4e487b7100000000000000000000000000000000000000000000000000000000600052601160045260246000fd5b600061138882611018565b91507fffffffffffffffffffffffffffffffffffffffffffffffffffffffffffffffff82036113ba576113b961134e565b5b600182019050919050565b60006113d082611018565b91506113db83611018565b92508282039050818111156113f3576113f261134e565b5b92915050565b7f4e487b7100000000000000000000000000000000000000000000000000000000600052601260045260246000fd5b600061143382611018565b915061143e83611018565b92508261144e5761144d6113f9565b5b828204905092915050565b600061146482611018565b915061146f83611018565b92508261147f5761147e6113f9565b5b828206905092915050565b600061149582611018565b91506114a083611018565b92508282026114ae81611018565b915082820484148315176114c5576114c461134e565b5b5092915050565b60006114d782611018565b91506114e283611018565b92508282019050808211156114fa576114f961134e565b5b92915050565b600082825260208201905092915050565b7f596f7520617265206e6f7420746865206f776e6572206f662074686520436f6e60008201527f7472616374000000000000000000000000000000000000000000000000000000602082015250565b600061156d602583611500565b915061157882611511565b604082019050919050565b6000602082019050818103600083015261159c81611560565b9050919050565b7f436f6e747261637420616c726561647920696e697469616c697a656400000000600082015250565b60006115d9601c83611500565b91506115e4826115a3565b602082019050919050565b60006020820190508181036000830152611608816115cc565b9050919050565b7f496e73756666696369656e742042616c616e6365000000000000000000000000600082015250565b6000611645601483611500565b91506116508261160f565b602082019050919050565b6000602082019050818103600083015261167481611638565b9050919050565b6116848161117b565b82525050565b61169381611018565b82525050565b60006040820190506116ae600083018561167b565b6116bb602083018461168a565b9392505050565b60006020820190506116d7600083018461168a565b92915050565b6000815190506116ec8161118d565b92915050565b60006020828403121561170857611707610f4c565b5b6000611716848285016116dd565b91505092915050565b7f55736572206973206e6f7420746865206f776e6572206f662074686520746f6b60008201527f656e496400000000000000000000000000000000000000000000000000000000602082015250565b600061177b602483611500565b91506117868261171f565b604082019050919050565b600060208201905081810360008301526117aa8161176e565b9050919050565b7f436f6e7472616374206973206e6f7420696e697469616c697a65640000000000600082015250565b60006117e7601b83611500565b91506117f2826117b1565b602082019050919050565b60006020820190508181036000830152611816816117da565b9050919050565b6000606082019050611832600083018661167b565b61183f602083018561167b565b61184c604083018461168a565b949350505050565b600061185f82611018565b9150600082036118725761187161134e565b5b600182039050919050565b7f4e487b7100000000000000000000000000000000000000000000000000000000600052603160045260246000fdfea264697066735822122008e5cffb777187414a17d31ee0c158f60e04cedced559fb45ca6e605e9dcad0064736f6c63430008110033",
  "linkReferences": {},
  "deployedLinkReferences": {}
}